:020000040800F2
:1000000000000820211E0008711E0008711E000853
:10001000711E0008711E0008711E0008000000001B
:10002000000000000000000000000000711D00083A
:10003000711E000800000000731D0008751D0008F7
:10004000711E0008711E0008711E0008711E000854
:10005000711E0008711E0008711E0008711E000844
:10006000711E0008711E0008711E0008711E000834
:10007000711E0008711E0008711E0008711E000824
:10008000711E0008711E0008711E0008711E000814
:10009000711E0008711E0008711E0008711E000804
:1000A000811D0008911D0008A11D0008B11D000858
:1000B000C11D0008711E0008711E0008711E000895
:1000C000711E0008711E0008711E0008711E0008D4
:1000D000711E0008711E0008711E0008711E0008C4
:1000E000711E0008711E0008711E0008711E0008B4
:1000F000711E0008711E0008711E0008711E0008A4
:10010000711E0008711E0008711E0008711E000893
:10011000711E0008711E0008711E0008711E000883
:10012000711E0008711E0008711E0008711E000873
:10013000711E0008711E0008711E0008711E000863
:10014000711E0008711E0008711E0008711E000853
:10015000711E0008711E0008711E0008711E000843
:10016000711E0008711E0008711E0008711E000833
:10017000711E0008711E0008711E000800000000BA
:10018000711E0008711E0008711E0008711E000813
:10019000711E0008711E0008711E0008711E000803
:1001A000711E0008711E0008711E0008711E0008F3
:1001B000711E0008711E0008711E0008711E0008E3
:1001C000711E0008711E000800000000711E00086A
:1001D000711E0008711E0008711E0008711E0008C3
:1001E000711E0008711E0008711E0008711E0008B3
:0801F000711E0008711E0008D9
:1001F80010B5054C237833B9044B13B10448AFF359
:1002080000800123237010BD1000002000000000B2
:10021800DC1E00080C4B43B10C480D4910B5AFF378
:1002280000800C48036823B910BD0A48036833B935
:100238007047094B002BF7D0BDE810401847064B14
:10024800002BF5D0184700BF00000000DC1E000896
:1002580014000020100000200000000053B94AB923
:10026800002908BF00281CBF4FF0FF314FF0FF30B6
:1002780000F07AB9ADF1080C6DE904CE00F006F88B
:10028800DDF804E0DDE9022304B070472DE9F0470A
:100298008C460D460446089E002B51D18A421746CB
:1002A8006DD9B2FA82FEBEF1000F0BD0CEF1200C50
:1002B80001FA0EF520FA0CFC02FA0EF74CEA050CCE
:1002C80000FA0EF44FEA174A250CBCFBFAF81FFA9D
:1002D80087F90AFB18CC45EA0C4508FB09F3AB4241
:1002E8000AD9ED1908F1FF3280F02381AB4240F2C0
:1002F8002081A8F102083D44ED1AA4B2B5FBFAF03A
:100308000AFB105544EA054400FB09F9A14509D93F
:10031800E41900F1FF3380F00A81A14540F207811A
:1003280002383C44A4EB090440EA08400021002EAE
:1003380061D024FA0EF4002334607360BDE8F087BE
:100348008B4207D9002E54D0002186E821000846A8
:10035800BDE8F087B3FA83F1002940F08E80AB4204
:1003680002D3824200F2FA80841A65EB0305012069
:10037800AC46002E3FD086E81010BDE8F08712B9D1
:100388000127B7FBF2F7B7FA87FEBEF1000F34D1A9
:10039800EB1B3A0C1FFA87FC0121B3FBF2F8250C82
:1003A80002FB183345EA03450CFB08F3AB4207D9B7
:1003B800ED1908F1FF3002D2AB4200F2D18080463D
:1003C800ED1AA3B2B5FBF2F002FB105543EA05445F
:1003D8000CFB00FCA44507D9E41900F1FF3302D255
:1003E800A44500F2B8801846A4EB0C0440EA084083
:1003F8009DE731463046BDE8F087CEF1200405FA86
:100408000EF307FA0EF720FA04F83A0C25FA04F46A
:1004180048EA0308B4FBF2F14FEA184502FB11441D
:100428001FFA87FC45EA044501FB0CF3AB4200FACE
:100438000EF409D9ED1901F1FF3080F08A80AB4242
:1004480040F2878002393D44EB1A1FFA88F5B3FB66
:10045800F2F002FB103345EA034500FB0CF3AB4214
:1004680007D9ED1900F1FF386FD2AB426DD90238C8
:100478003D44EB1A40EA01418FE7C1F1200722FA17
:1004880007F88B4005FA01F448EA030320FA07FE4F
:100498004FEA134CFD404EEA040EB5FBFCF94FEA57
:1004A8001E440CFB19551FFA83F844EA054509FB5D
:1004B80008F4AC4202FA01F200FA01FA08D9ED1880
:1004C80009F1FF3043D2AC4241D9A9F102091D44D8
:1004D8002D1B1FFA8EFEB5FBFCF00CFB10554EEAE7
:1004E800054400FB08F8A04507D9E41800F1FF35DA
:1004F80029D2A04527D902381C4440EA0940A4EB78
:100508000804A0FB02894C45C6464D4615D312D0B7
:1005180056B1BAEB0E0364EB050404FA07F7CB40B7
:100528001F43CC40376074600021BDE8F08718464F
:10053800F8E69046E0E6C245EAD2B8EB020E69EB6F
:1005480003050138E4E72846D7E7404691E78146A6
:10055800BEE7014678E702383C4445E7084608E725
:10056800A8F102083D442BE7704700BF10B50446C8
:100578000E4B18784FF47A73B3FBF0F30C4A1068FB
:10058800B0FBF3F000F082F868B90F2C01D9012014
:1005980010BD002221464FF0FF3000F03BF8034B1E
:1005A8005C60002010BD012010BD00BF00000020CD
:1005B8000C00002008B5032000F01AF80020FFF70F
:1005C800D5FF01F02DFB002008BD0000034A11688B
:1005D800034B1B780B441360704700BF5400002086
:1005E80000000020014B1868704700BF540000202D
:1005F8000649CB6823F4E0631B041B0C000200F4DB
:10060800E0600343024A1A43CA60704700ED00E005
:100618000000FA0530B4144BDB68C3F30223C3F1BE
:100628000704042C28BF04241D1D062D13D9033BE1
:10063800012505FA04F4013C2140994005FA03F329
:10064800013B13401943002807DB0901C9B2074BD6
:10065800195430BC70470023EAE700F00F00090185
:10066800C9B2034B1954F4E700ED00E000E400E0E0
:1006780014ED00E0420900F01F00012303FA00F026
:10068800014B43F82200704700E100E00138B0F167
:10069800807F0AD2064B5860F021064A82F8231060
:1006A8000020986007221A6070470120704700BF39
:1006B80010E000E000ED00E0042805D0054A1368CA
:1006C80023F0040313607047024A136843F00403DD
:1006D8001360704710E000E0704708B5FFF7FCFFB3
:1006E80008BD0000F0B583B0002437E0092600E01B
:1006F800002606FA0EF6324302336C4E46F82320E3
:100708006B4B1A68EB4302EA03064F6817F4803F05
:1007180001D045EA0206664A1660526803EA0206F4
:100728004F6817F4003F01D045EA0206604A566058
:10073800926803EA02064F6817F4801F01D045EA61
:1007480002065B4A9660D26813404E6816F4001F92
:1007580001D045EA0203564AD36001340F2C00F257
:10076800A3800123A3400A6803EA0205AB42F4D13F
:100778004A68122A18BF022A12D14FEAD40E0EF183
:10078800080E50F82E2004F00706B6000F27B740D1
:1007980022EA07020F6907FA06F6324340F82E20CC
:1007A80006684FEA440E032202FA0EF2D2431640BC
:1007B8004F6807F0030707FA0EF73E4306604E68D6
:1007C800771E112E18BF012F01D9122E0FD186685E
:1007D8001640CF6807FA0EF73E438660466826EA59
:1007E80003034E68C6F30016A64033434360C3684C
:1007F8001A408B6803FA0EF31A43C2604B6813F071
:10080800805FAAD02B4B5A6C42F480425A645B6CCE
:1008180003F480430193019BA3089E1C234A52F8CA
:10082800262004F003064FEA860E0F2606FA0EF677
:1008380022EA0602204FB8423FF45AAF1F4EB04298
:1008480022D006F58066B04220D006F58066B04218
:100858001ED006F58066B0421CD006F58066B04210
:100868001AD006F58066B04218D006F58066B04208
:1008780016D006F58066B04214D006F58066B04200
:100888003FF434AF0A2634E7012632E7022630E780
:1008980003262EE704262CE705262AE7062628E75E
:1008A800072626E7082624E703B0F0BD00380140F4
:1008B800003C0140003802400000024000040240B1
:1008C80012B90904816170478161704710B582B01F
:1008D8001B4B1A6C42F080521A641B6C03F0805355
:1008E8000193019B174A136843F480331360FFF7A1
:1008F80079FE0446134B5B6813F4803F08D1FFF779
:1009080071FE001BB0F57A7FF4D9032002B010BD48
:100918000C4A136843F400331360FFF763FE044680
:10092800084B5B6813F4003F07D1FFF75BFE001B21
:10093800B0F57A7FF4D90320E8E70020E6E700BFA6
:100948000038024000700040002800F0DC8170B5DB
:1009580082B00446036813F0010F3AD0A24B9B689B
:1009680003F00C03042B2BD09F4B9B6803F00C0364
:10097800082B20D06368B3F5803F50D0002B54D1AA
:10098800994B1A6822F480321A601A6822F480227D
:100998001A606368002B5FD0FFF724FE0546924B70
:1009A8001B6813F4003F14D1FFF71CFE401B64289A
:1009B800F5D90320ACE18C4B5B6813F4800FD9D0D8
:1009C800894B1B6813F4003F03D06368002B00F0C9
:1009D8009C81236813F0020F64D0834B9B6813F04B
:1009E8000C0F4DD0804B9B6803F00C03082B42D0B2
:1009F800E368002B79D07C4A136843F00103136045
:100A0800FFF7F0FD0546784B1B6813F0020F63D122
:100A1800FFF7E8FD401B0228F5D9032078E1724A68
:100A2800136843F480331360B3E7B3F5A02F09D0FC
:100A38006D4B1A6822F480321A601A6822F48022F8
:100A48001A60A6E7684B1A6842F480221A601A688E
:100A580042F480321A609CE7FFF7C4FD0546624BFA
:100A68001B6813F4003FB4D0FFF7BCFD401B64289B
:100A7800F5D903204CE15C4B5B6813F4800FB7D1C8
:100A8800594B1B6813F0020F04D0E368012B01D007
:100A980001203DE1544A136823F0F803216943EA31
:100AA800C1031360236813F0080F46D0636983B34A
:100AB8004D4A536F43F001035367FFF793FD054613
:100AC800494B5B6F13F0020F37D1FFF78BFD401BCB
:100AD8000228F5D903201BE1434A136823F0F803E1
:100AE800216943EAC1031360DCE73F4A136823F036
:100AF80001031360FFF776FD05463B4B1B6813F0B7
:100B0800020FCFD0FFF76EFD401B0228F5D9032056
:100B1800FEE0354A536F23F001035367FFF762FD88
:100B28000546314B5B6F13F0020F06D0FFF75AFDF5
:100B3800401B0228F5D90320EAE0236813F0040FCC
:100B48007ED0294B1B6C13F0805F31D1264B1A6C79
:100B580042F080521A641B6C03F080530193019B8E
:100B68000125224B1B6813F4807F23D0A368012B37
:100B780034D0002B3CD11C4B1A6F22F001021A67AB
:100B88001A6F22F004021A67A368002B46D0FFF7F9
:100B980029FD0646144B1B6F13F0020F4FD1FFF7C8
:100BA80021FD801B41F288339842F3D90320AFE03E
:100BB8000025D6E70D4A136843F480731360FFF7E6
:100BC80011FD0646094B1B6813F4807FCED1FFF751
:100BD80009FD801B6428F5D9032099E0024A136FA8
:100BE80043F001031367CFE700380240007000406C
:100BF800052B09D0484B1A6F22F001021A671A6FA9
:100C080022F004021A67BFE7434B1A6F42F004024E
:100C18001A671A6F42F001021A67B5E7FFF7E2FC9C
:100C280006463D4B1B6F13F0020F08D0FFF7DAFCA6
:100C3800801B41F288339842F3D9032068E0F5B964
:100C4800A369002B63D0344A926802F00C02082A88
:100C580060D0022B19D0304A136823F080731360D8
:100C6800FFF7C0FC04462C4B1B6813F0007F48D0EC
:100C7800FFF7B8FC001B0228F5D9032048E0264AF4
:100C8800136C23F080531364DAE7234A136823F0C4
:100C980080731360FFF7A6FC05461F4B1B6813F013
:100CA800007F06D0FFF79EFC401B0228F5D90320E1
:100CB8002EE0E369226A1343626A43EA8213A26A56
:100CC8005208013A43EA0243E26A43EA0263226BAA
:100CD80043EA0273104A5360136843F08073136049
:100CE800FFF780FC04460C4B1B6813F0007F06D10D
:100CF800FFF778FC001B0228F5D9032008E0002044
:100D080006E0002004E001207047012000E00020F8
:100D180002B070BD0120FBE700380240F8B5314B46
:100D28009B6803F00C03042B59D0082B01D02E48E4
:100D3800F8BD2C4B5A6802F03F025B6813F4800F31
:100D48002AD0284B5B68C3F388131E4600275C0132
:100D58000025E41A65EB0705A90141EA9461A001A1
:100D6800001B61EB0501CB0043EA5073C400A019D6
:100D780043EB07014B0243EAD0534402204619468D
:100D88000023FFF76BFA174B5B68C3F3014301338A
:100D98005B00B0FBF3F0F8BD124B5B68C3F388133C
:100DA8001E4600275C010025E41A65EB0705A9012A
:100DB80041EA9461A001001B61EB0501CB0043EA05
:100DC8005073C400A01943EB07018B0243EA905308
:100DD8008402204619460023FFF740FAD3E7034868
:100DE800F8BD00BF003802400024F40000127A0069
:100DF800002800F0A28070B50446524B1B6803F02F
:100E08000F038B420CD24F4A136823F00F030B4396
:100E18001360136803F00F03994201D0012070BDDD
:100E2800236813F0020F17D013F0040F04D0464ABA
:100E3800936843F4E0539360236813F0080F04D0D9
:100E4800414A936843F4604393603F4A936823F0B0
:100E5800F003A068034393600D46236813F0010F65
:100E680031D06368012B20D0022B25D0364A126876
:100E780012F0020F63D034498A6822F00302134348
:100E88008B60FFF7AFFB06462F4B9B6803F00C0304
:100E98006268B3EB820F16D0FFF7A4FB801B41F208
:100EA80088339842F0D9032070BD274A126812F49B
:100EB800003FE0D1012070BD234A126812F0007F84
:100EC800D9D1012070BD1F4B1B6803F00F039D4251
:100ED8000CD21C4A136823F00F032B4313601368CA
:100EE80003F00F039D4201D0012070BD236813F069
:100EF800040F06D0144A936823F4E053E1680B43C7
:100F08009360236813F0080F07D00F4A936823F4FF
:100F18006043216943EAC1039360FFF7FFFE0A4B70
:100F28009B68C3F30313094AD35CD840084B186085
:100F38000020FFF71BFB002070BD01207047012037
:100F480070BD00BF003C024000380240F41E00089B
:100F58000C000020014B1868704700BF0C000020EF
:100F680010B4036A046A24F001040462846924F05A
:100F7800F00444EA021223F00A030B43826103627D
:100F88005DF8044B704730B4046A24F0100404621E
:100F98008469056A24F4407444EA022222F4704207
:100FA8001B039BB21A4325F0A005090101F0A0011B
:100FB8000D438261056230BC704710B4036A23F0A8
:100FC800100303628469036A24F4704444EA023219
:100FD80023F0A00343EA0113826103625DF8044B26
:100FE800704730B4046A24F480740462C469056AE2
:100FF80024F00304224322F0F0021B01DBB21A435F
:1010080025F42065090201F420610D43C2610562DF
:1010180030BC704730B4046A24F480540462C46954
:10102800056A24F4407444EA022222F470421B0345
:101038009BB21A4325F42045090301F420410D43CE
:10104800C261056230BC7047836823F0700341F0C9
:1010580007010B43836070477047704770477047BC
:10106800704710B5044603681A6912F0020F11D0D0
:10107800DA6812F0020F0DD06FF002021A61012334
:10108800037703689B6913F0030F79D000F002FC23
:101098000023237723681A6912F0040F12D0DA6844
:1010A80012F0040F0ED06FF004021A6102232377A6
:1010B80023689B6913F4407F68D0204600F0EAFB60
:1010C8000023237723681A6912F0080F12D0DA6810
:1010D80012F0080F0ED06FF008021A61042323776C
:1010E8002368DB6913F0030F57D0204600F0D2FBCA
:1010F8000023237723681A6912F0100F12D0DA68D8
:1011080012F0100F0ED06FF010021A610823237727
:101118002368DB6913F4407F46D0204600F0BAFB11
:101128000023237723681A6912F0010F03D0DA68C5
:1011380012F0010F3FD123681A6912F0800F03D013
:10114800DA6812F0800F3DD123681A6912F4807FA3
:1011580003D0DA6812F0800F3BD123681A6912F0C5
:10116800400F03D0DA6812F0400F39D123681A69AA
:1011780012F0200F03D0DA6812F0200F37D110BD1B
:10118800FFF76CFF2046FFF76AFF81E72046FFF76D
:1011980065FF2046FFF763FF92E72046FFF75EFFF3
:1011A8002046FFF75CFFA3E72046FFF757FF2046DE
:1011B800FFF755FFB4E76FF001021A612046FFF709
:1011C8004CFFB8E76FF080021A61204600F09BFAE6
:1011D800BAE76FF080021A61204600F094FABCE783
:1011E8006FF040021A612046FFF73AFFBEE76FF042
:1011F80020021A61204600F085FAC0E770B403683F
:10120800474A904214BF00220122B0F1804F14BF18
:10121800144642F00104D4B9424DA84214BF002537
:101228000125414EB04254D0002D52D105F18045E0
:1012380005F58235A84214BF0025012506F500668C
:10124800B04202D00DB9002502E0012500E00125D9
:101258001DB123F070034D682B43002C3DD1314C58
:10126800A04214BF002401242F4DA84250D0002CC6
:101278004ED104F1804404F58234A04214BF002406
:10128800012405F50065A84244D0002C42D1274C22
:10129800A04214BF0024012405F59A35A8423BD08A
:1012A800002C39D1224CA04214BF0024012405F59A
:1012B8000065A84232D0002C30D11E4CA04214BF89
:1012C80000240124A5F59635A84204D01CB90024B1
:1012D80004E00125BCE7012400E001241CB123F44B
:1012E8004073CC68234323F080034C692343036095
:1012F8008B68C3620B6883620F4B984208BF42F049
:1013080001020AB10B6903630123436170BC704792
:101318000124E3E70124E1E70124DFE70124DDE715
:101328000000014000080040000400400044014063
:10133800001800400020004000040140A8B110B58A
:10134800044690F83D305BB1022384F83D30211DFE
:101358002068FFF753FF012384F83D30002010BDBB
:1013680080F83C3000F0A4FCEEE701207047A8B1FB
:1013780010B5044690F83D305BB1022384F83D3047
:10138800211D2068FFF73AFF012384F83D30002033
:1013980010BD80F83C30FFF75FFEEEE70120704794
:1013A800F0B4046A24F0010404628469056A224ED8
:1013B800B0F1804F18BFB04224D0A6F57846B042AD
:1013C80014BF002601261D4FB8422DD066BB06F17A
:1013D800804606F58236B04214BF0026012607F57E
:1013E8000067B84222D00EBB154EB04214BF00268B
:1013F800012607F59A37B84202D00EB9002602E056
:10140800012600E001269EB944F0010222F0F00214
:101418001B01DBB2134325F00A0201F00A01114354
:1014280083610162F0BC70470126ECE70126EAE718
:1014380024F003042243E9E70000014000040040CF
:101448000018004038B590F83C30012B58D00D46B4
:101458000446012380F83C30022380F83D30DAB19D
:10146800042A2AD0082A3AD0CB684A680968006852
:10147800FFF7D0FD2268D36923F44063D361226863
:10148800D369A96843EA0123D361012384F83D3075
:10149800002084F83C0038BDCB684A6809680068B9
:1014A800FFF77EFF2268936923F00C03936122689B
:1014B8009369A9680B439361E7E7CB684A680968B1
:1014C8000068FFF760FD2268936923F44063936125
:1014D80022689369A96843EA01239361D5E7CB6839
:1014E8004A6809680068FFF77CFD2268D36923F021
:1014F8000C03D3612268D369A9680B43D361C4E79D
:10150800022038BD10B4846824F47F4442EA0323DF
:1015180019430C4384605DF8044B704790F83C30E5
:10152800012B7DD010B50446012380F83C300223FE
:1015380080F83D30026890683A4B034093600B682E
:10154800402B59D010D9702B3ED01FD8502B49D0E2
:10155800602B32D1CA6849682068FFF72EFD6021E8
:101568002068FFF771FD28E0102B4FD008D9202BF9
:1015780051D0302B21D130212068FFF765FD1CE0C8
:10158800DBB900212068FFF75FFD16E0B3F5805F47
:101598000ED0B3F5005F10D1CB684A68896820681F
:1015A800FFF7B0FF2268936843F48043936004E038
:1015B800226891681C4B0B409360012384F83D30EE
:1015C800002084F83C0010BDCB684A688968206810
:1015D800FFF798FF22689168144B0B4043F077039C
:1015E8009360EAE7CA6849682068FFF7B9FC5021A8
:1015F8002068FFF729FDE0E7CA6849682068FFF717
:10160800AFFC40212068FFF71FFDD6E710212068B6
:10161800FFF71AFDD1E720212068FFF715FDCCE779
:10162800022070478800FEFFF8FFFEFF88FFFEFFDC
:1016380010B4012303FA01F4036A23EA04030362E2
:10164800036A8A40134303625DF8044B704710B580
:1016580004460C290DD8DFE801F0070C0C0C170C18
:101668000C0C1D0C0C0C23000268D36843F0020319
:10167800D36001222068FFF7DBFF2268136843F07C
:1016880001031360002010BD0268D36843F004030F
:10169800D360EEE70268D36843F00803D360E8E755
:1016A8000268D36843F01003D360E2E790F83C3057
:1016B800012B21D070B4012380F83C3004686368A2
:1016C800A2680E4D0E4EAC4218BFB44203D123F4AB
:1016D80070034D682B4323F070030D682B4322F0F1
:1016E800800289680A43636003689A60002380F86F
:1016F8003C30184670BC7047022070470004014017
:1017080000000140704770472DE9F0418EB0594BF9
:101718001A6B42F010021A631A6B02F0100201925F
:10172800019A1A6B42F004021A631A6B02F004025F
:101738000292029A1A6B42F020021A631A6B02F0A4
:1017480020020392039A1A6B42F080021A631A6B02
:1017580002F080020492049A1A6B42F001021A63A2
:101768001A6B02F001020592059A1A6B42F0020206
:101778001A631A6B02F002020692069A1A6B42F07A
:1017880040021A631A6B02F040020792079A1A6B1A
:1017980042F008021A631B6B03F008030893089BC6
:1017A800354E00224FF4E0513046FFF789F8DFF854
:1017B800E08000221F214046FFF782F84FF6FF77AE
:1017C800099703250A9500240B9409A92B48FEF7CD
:1017D80089FF42F2FF3309930A950B9409A9304611
:1017E800FEF780FF09970A950B9409A92448FEF78C
:1017F80079FF49F6FE7309930A950B9409A92148C4
:10180800FEF770FF09970A950B9409A91E48FEF781
:1018180069FF09970A950B9409A91C48FEF762FF0E
:101828004FF6E07309930A950B9409A94046FEF711
:1018380059FF4FF44063099301270A970B940C94BE
:1018480009A93046FEF74EFF4FF4805309930A97D3
:101858000B940C9509A93046FEF744FF1F23099302
:101868000A970B940C9409A94046FEF73BFF0EB06B
:10187800BDE8F08100380240000802400010024034
:101888000014024000000240000402400018024018
:10189800000C02400368B3F1804F00D0704770B568
:1018A800504B1B685B6A504A1360152B1CD80022EA
:1018B8004D4B5A604C4B9B6833BB4B48437B03737F
:1018C800837B4373C37B83734368C3730422474991
:1018D8000C3000F0EFFA10B90122434B9A60414BEB
:1018E8001B6800225A6270BD232B03D801223E4B8D
:1018F8005A60DFE7332B03D802223B4B5A60D9E703
:101908000322394B5A60D5E7374B1B69002B5CD152
:10191800354B5B685BB9344A526942B9324B9A69B4
:101928009818012101770A449A61596106E01BB9A8
:101938002D4A5269012A3CD0012B3ED02A4B5A6AC3
:1019480001325A629B69072BC9D9274C01262661A7
:10195800274D227F10212846FEF7B2FF627F08211B
:101968002846FEF7ADFFA27F04212846FEF7A8FF10
:10197800E27F02212846FEF7A3FF94F82020314693
:101988002846FEF79DFF94F821204FF48051284601
:10199800FEF796FF94F822204FF400612846FEF7E0
:1019A8008FFF94F823204FF480612846FEF788FFC4
:1019B80095E700220C4B5A61C0E70B4A9369D1188E
:1019C8000020087701339361B8E7074A536A013367
:1019D8005362B3F52A7F82D9134600225A621A61EC
:1019E8009A607CE7980000202C0000200800002066
:1019F80000080240FEE7000000B58DB025484FF012
:101A0800804303600023436083604FF47A72C260AE
:101A180003618361FFF792FC18BB0CA94FF4805354
:101A280041F8103D1B48FFF779FDF8B91948FFF751
:101A38009EFC00BB00230593079305A91548FFF7F3
:101A480035FEE8B90A230193012302930022039289
:101A5800049201A90F48FFF7F5FCB0B90DB05DF885
:101A680004FB40F20D110C48FFF7C4FF40F21311BC
:101A78000948FFF7BFFF4FF48C710748FFF7BAFF1B
:101A880040F21F110448FFF7B5FF4FF49471024864
:101A9800FFF7B0FF980000200C1F000800B589B0C0
:101AA8001748184B03600023436083604FF47A7231
:101AB800C260036143618361FFF740FCA0B908A9D4
:101AC8004FF4805341F8103D0D48FFF727FD78B9D2
:101AD800002301930293039301A90948FFF7E6FD48
:101AE80050B909B05DF804FBEA210748FFF782FF07
:101AF800F0210548FFF77EFFF8210348FFF77AFF3A
:101B080058000020000001400C1F000800B595B0E7
:101B18002E4B1A6C42F080521A641B6C03F08053EF
:101B28000093009B2A4B1A6842F440421A601B68D3
:101B380003F440430193019B012307934FF4A0232F
:101B4800089302230D934FF480020E9204220F9201
:101B5800D822109211930923129307A8FEF7F4FED6
:101B680038BBFEF7B3FE40BB0F2302930223039357
:101B7800002304934FF4A05305934FF48053069326
:101B8800072102A8FFF734F9D8B9FFF7E3F9114B99
:101B9800A3FB00308009FEF779FD0420FEF78CFDD9
:101BA800002211464FF0FF30FEF734FD15B05DF806
:101BB80004FBB6210848FFF71DFFBD210648FFF7C3
:101BC80019FFCB210448FFF715FF00BF003802407A
:101BD80000700040D34D62100C1F000808B5FEF7D6
:101BE800E9FCFFF793FFFFF78FFDFFF705FFFFF70E
:101BF80055FF00210748FFF72AFD002241F6100192
:101C08000548FEF75DFE012240F20F410348FEF74A
:101C180057FEFEE79800002000080240000C024032
:101C280000B583B0214B1A6C42F080521A641A6CCA
:101C380002F080520092009A5A6C42F480425A6430
:101C48005B6C03F480430193019B0320FEF7D0FCF7
:101C5800002211466FF00B00FEF7DCFC0022114653
:101C68006FF00A00FEF7D6FC002211466FF009005B
:101C7800FEF7D0FC002211466FF00400FEF7CAFC04
:101C8800002211466FF00300FEF7C4FC0022114643
:101C98006FF00100FEF7BEFC002211464FF0FF3046
:101CA800FEF7B8FC03B05DF804FB00BF0038024043
:101CB80010B588B00368294A934204D0B3F1804F25
:101CC8002CD008B010BD264B5A6C42F001025A6461
:101CD8005B6C03F001030193019B0022114618205D
:101CE800FEF798FC1820FEF7C5FC002211461920C3
:101CF800FEF790FC1920FEF7BDFC002211461A20C1
:101D0800FEF788FC1A20FEF7B5FC002211461B20BE
:101D1800FEF780FC1B20FEF7ADFCD2E703F50E337F
:101D28001A6C42F001021A641B6C03F0010302935F
:101D3800029B012303930222049200240594069433
:101D4800079303A90748FEF7CDFC224621461C202D
:101D5800FEF760FC1C20FEF78DFCB2E70000014096
:101D680000380240000002407047704708B5FEF78F
:101D78002DFCFEF7B2FC08BD08B50248FFF771F963
:101D880008BD00BF5800002008B50248FFF769F9F0
:101D980008BD00BF5800002008B50248FFF761F9E8
:101DA80008BD00BF5800002008B50248FFF759F9E0
:101DB80008BD00BF5800002008B50248FFF751F9D8
:101DC80008BD00BF9800002010B40F4AD2F8883030
:101DD80043F47003C2F888300C4B196841F00101D4
:101DE8001960002098601C68094921401960094958
:101DF8005960196821F480211960D8604FF0006398
:101E080093605DF8044B704700ED00E00038024035
:101E1800FFFFF6FE10300024DFF834D0002103E085
:101E28000C4B5B58435004310B480C4B42189A42F8
:101E3800F6D30B4A02E0002342F8043B094B9A42CE
:101E4800F9D3FFF7C1FF00F011F8FFF7C7FE70479D
:101E5800000008202C1F00080000002010000020AF
:101E680010000020D8000020FEE7000070B50D4EDD
:101E78000D4CA41BA4100025A54209D10B4E0C4CF7
:101E880000F028F8A41BA4100025A54205D170BDB8
:101E980056F8253098470135EEE756F8253098472B
:101EA8000135F2E7241F0008241F0008241F00083A
:101EB800281F000810B501390244904201D10020C2
:101EC80010BD10F8013B11F8014FA342F5D0181BC3
:101ED80010BD0000F8B500BFF8BC08BC9E467047AE
:0C1EE800F8B500BFF8BC08BC9E4670476F
:101EF40000000000000000000102030406070809B6
:101F040000000000010203042E2E2F5372632F6D74
:081F140061696E2E63000000FC
:081F1C0078E3FF7F01000000E3
:041F24001D02000892
:041F2800F9010008B3
:101F2C000100000010000000020000020024F40078
:0400000508001E21B0
:00000001FF
